:020000040800F2
:10000000D0050020010100085D3C00085D370008B4
:10001000593C0008C5070008D5440008000000004E
:10002000000000000000000000000000AD3E0008DD
:10003000370A000800000000833E0008F13E000877
:100040001B0100081B0100081B0100081B01000820
:100050001B0100081B0100081B0100081B01000810
:100060001B0100081B0100081B0100081B01000800
:100070001B0100081B0100081B0100081B010008F0
:100080001B0100081B0100081B0100081B010008E0
:1000900091440008C90700081B010008390A00083C
:1000A0001B0100081B0100081B0100081B010008C0
:1000B000E53F00081B0100081B0100081B010008A8
:1000C0001B0100081B0100081B0100081B010008A0
:1000D0001B0100081B010008814400081B010008E7
:1000E0001B0100081B0100081B010008DFF80CD0F1
:1000F00000F0D8FA00480047314E0008D005002033
:100100000648804706480047FEE7FEE7FEE7FEE7B1
:10011000FEE7FEE7FEE7FEE7FEE7FEE78D3F0008AD
:10012000ED000008202A04DB203A21FA02F0002129
:10013000704721FA02F3D040C2F1200291400843F7
:100140001946704740EA01039B0703D009E008C93C
:10015000121F08C0042AFAD203E011F8013B00F88C
:10016000013B521EF9D27047D2B201E000F8012BD8
:10017000491EFBD270470022F6E710B513460A4627
:1001800004461946FFF7F0FF204610BD30B480EA60
:10019000010202F0004530F0004221F0004013D08F
:1001A00090B1C30DD40DC2F31601C0F31600E41ACA
:1001B00041F4000140F400027D34914201D3641CFB
:1001C00000E04900002C02DA30BC002070474FF4F8
:1001D00000000023914201D3891A034340084FEAEB
:1001E0004101F7D151B1914202D14FF0004105E0F8
:1001F00002D24FF0010101E06FF0010103EBC450A6
:10020000284430BC00F05FB896230022114600F06D
:1002100063B800F0004230F000400AD0C10D01F593
:100220006071C0F3160042EA0151C2084007114351
:10023000704700200146704730B50B46014600204C
:100240002022012409E021FA02F59D4205D303FA98
:1002500002F5491B04FA02F52844151EA2F1010219
:10026000F1DC30BD2DE9F05F0546002092469B464B
:1002700088460646814640241BE0284641464746BC
:100280002246FFF74FFF53465A46C01A914110D3FA
:1002900011461846224600F017FA2D1A67EB01089E
:1002A0004F4622460120002100F00EFA17EB00090C
:1002B0004E41201EA4F10104DFDC484631462A46A7
:1002C0004346BDE8F09F0029A8BF7047401C490085
:1002D00008BF20F00100704710B4B0FA80FC00FAAB
:1002E0000CF050EA010404BF10BC704749B1CCF1D6
:1002F000200421FA04F411FA0CF118BF0121214362
:100300000843A3EB0C01CB1D4FEA00614FEA10201C
:1003100042BF002010BC704700EBC35010440029BE
:10032000A4BF10BC7047401C490008BF20F001006A
:1003300010BC70472DE9FE4F804681EA0300C00FD4
:100340000C46009021F0004123F00045B8EB02007C
:10035000A94105D24046214690461C460B4602461E
:1003600023F00040104347D0270DC7F30A00C3F322
:100370000A510290401A019040286BDAC3F313002F
:1003800040F4801B0098924620B10023D2EB030A70
:1003900063EB0B0B01985946C0F14002504600F048
:1003A00093F906460D4650465946019A00F09BF9CE
:1003B00010EB08006141002487EA115284EAE773D8
:1003C0001A4340D0009A62B3019A012A4FEA0752B9
:1003D00015DC001B61EB02014FF0004202EA0752FC
:1003E000CDE90042001C41F5801132462B4600F059
:1003F0009BF903B0BDE8F08F40462146F9E7001BAA
:1004000061EB0201001C41F5801300185B412018CC
:10041000A2F5001747EB030140EAD570B6196D410C
:1004200011E06D084FEA360645EAC0754FEA0752FB
:10043000001B61EB0201001C41F5801149084FEAE5
:1004400030000019514132462B4603B0BDE8F04F51
:1004500000F05BB90098012240000023D0EB0202BB
:1004600063EBE073009821464FEAE074B8EB0000BC
:1004700061EB0401E9E783F000435BE781F00041B1
:1004800058E72DE9FE4F81EA030404F0004421F00F
:10049000004100944FF0000B23F0004350EA0104A8
:1004A0005ED052EA03045BD0C3F30A54C1F30A5589
:1004B0002C44A4F2F3340194A0FB0254C1F31301C1
:1004C00041F48011C3F3130343F4801301FB02448E
:1004D00000FB034E840A970A44EA815447EA835793
:1004E000A4FB076802958D0A05FB07854FEA932C4C
:1004F00004FB0C542705029D4FEA065847EA1637BD
:10050000B5EB08056EEB070C870E920E47EA8117D4
:1005100042EA8312A7FB0201B6EB0B0164EB000475
:100520002B0D43EA0C335E1844EB1C50DA4651465F
:10053000E7FB0201C5F313044FEA0B3343EA1453FC
:100540004FEA0432019C43EA0603A4F10C0402942E
:10055000009CCDE900B400F0E7F803B0BDE8F08FEF
:1005600000200146F9E72DE9F04D81EA030404F08B
:10057000004B21F0004514464FF0000A23F00041E3
:1005800050EA050220D054EA01021DD0C5F30A57F3
:100590000246C5F31303C1F31300C1F30A5640F436
:1005A000801543F48013A7EB0608101BD64608F20B
:1005B000FD3873EB050002D308F1010801E0921841
:1005C0005B41B8F1000F03DA00200146BDE8F08D71
:1005D00000204FF48011064684460EE0171B73EB93
:1005E000050705D3121B63EB050306434CEA010C18
:1005F00049084FEA300092185B4150EA0107EDD1FB
:1006000052EA030012D082EA040083EA050108439B
:1006100005D0101BAB4106D20122002306E00022C8
:100620004FF0004302E06FF0010253101AEB060096
:100630004CEB085110EB0A0041EB0B01BDE8F04D0B
:1006400000F063B8C1F30A52C1F3130140F2FF3363
:1006500041F480119A4202DA00200146704740F2CC
:1006600033439A42A2F2334202DC5242FFF75ABDB0
:1006700000F02AB830B5041E71F1000404DB4FF01D
:100680000044404264EB0101141E73F1000405DBD9
:100690001C464FF00043524263EB0403994208BFEB
:1006A000904230BD064C074D06E0E06840F0010383
:1006B00094E8070098471034AC42F6D3FFF71AFDD0
:1006C00094550008B4550008202A04DB203A00FAAB
:1006D00002F1002070479140C2F1200320FA03F399
:1006E000194390407047202A06DBCB17203A41FA85
:1006F00002F043EAE07306E041FA02F3D040C2F1AF
:100700002002914008431946704710B5141E73F13A
:10071000000408DA401C41F1000192185B411A43C1
:1007200001D120F0010010BD2DE9F04D92469B460D
:1007300011B1B1FA81F202E0B0FA80F220329046B3
:10074000FFF7C2FF04460F4640EA0A0041EA0B01E8
:1007500053465A46084313D0114653EA010019D0B4
:10076000C8F140025046FFF7DDFC05460E465046F4
:1007700059464246FFF7A8FF084305D0012004E090
:1007800020463946BDE8F08D0020054346EAE07674
:100790002C4337430A986305E40AA0EB08000022C3
:1007A000FD0A44EA47540A3002D500200146E9E731
:1007B000010510196941DDE9084500196941BDE8E5
:1007C000F04DA2E700BFFEE710B5024800F0E2F9E5
:1007D00010BD0000F80000202DE9F04104460D4650
:1007E000002700260DB9666B00E0A66B206800F5B7
:1007F000D87000EB0510006800F00400B060B0682D
:1008000058B9206800F5D87000EB0510006840F278
:10081000FF7101EA505030600AE0206800F5D8709E
:1008200000EB051000686FF0604101EAD0007060D5
:10083000206800F5D87000EB0510006800F0020099
:10084000F060206800F5D87000EB0510406800F0FB
:100850000F0030613562206800F5D87000EB05109C
:100860004068C0F30720F061206800F5D87000EB05
:10087000051080683075206800F5D87000EB051011
:100880008068010A7175206800F5D87000EB0510CA
:100890008068010CB175206800F5D87000EB051078
:1008A0008068000EF075206800F5D87000EB051028
:1008B000C0683076206800F5D87000EB0510C0687D
:1008C000010A7176206800F5D87000EB0510C06849
:1008D000010CB176206800F5D87000EB0510C068F7
:1008E000000EF0764DB920202168C860206840696C
:1008F00020F00A002168486108E020202168086192
:100900002068406920F050002168486194F83C70EC
:10091000222F01D0322F05D12068406920F40F40EA
:1009200021684861CDB994F83C00422804D062287F
:1009300006D072280CD107E0122084F83C000BE0AE
:10094000322084F83C0007E0522084F83C0003E0A9
:10095000012084F83C0000BF19E094F83C005228C4
:1009600004D0622806D072280CD107E0122084F847
:100970003C000BE0222084F83C0007E0422084F891
:100980003C0003E0012084F83C0000BF00BF20468B
:1009900000F02EFD0020BDE8F08110B5044620686F
:1009A000406920F001002168486194F83C00122859
:1009B00005D12068406920F40F402168486194F80F
:1009C0003C00422804D0522806D072280CD107E0FF
:1009D000222084F83C000BE0322084F83C0007E041
:1009E000622084F83C0003E0012084F83C0000BF52
:1009F00000BF204601F032F8002010BD2DE9F04183
:100A000007460D4614461E46295D384603F048FD4C
:100A100080463019C6B2601CC4B207E02046621C92
:100A2000D4B2295C404603F03BFD8046B442F5DB7E
:100A30004046BDE8F081704710B54FF4807001F07A
:100A4000DFF910BD30B5024600230C7D012000FA0D
:100A500004F31068D0F8000220F47C5001254C6AA1
:100A600045EA042420431468C4F800021068D0F852
:100A70001C0298431468C4F81C02C869E8B91068DD
:100A8000D0F80C0298431468C4F80C02888880B22D
:100A90008C8940EA0444106800F510704D6940F8F4
:100AA0003540088880B20C8940EA0444106800F59B
:100AB00010704D6900EBC5004460C86901281DD164
:100AC0001068D0F80C0218431468C4F80C02888827
:100AD00080B20C8840EA0444106800F510704D693B
:100AE00040F83540888980B20C8940EA0444106897
:100AF00000F510704D6900EBC5004460886938B995
:100B00001068D0F8040298431468C4F8040206E0A0
:100B10001068D0F8040218431468C4F80402086985
:100B200038B91068D0F8140298431468C4F8140255
:100B300006E01068D0F8140218431468C4F81402D0
:100B4000086A012806D11068D0F81C0218431468FE
:100B5000C4F81C021068D0F8000220F001001468EC
:100B6000C4F80002002030BD10B504464FF0E0503C
:100B700021688860002021684861216888612046DA
:100B800000F0EAF9204600F005FA0021204600F0C6
:100B9000A8FB10BD2DE9F0410446002500260027E2
:100BA000A8462068C068C0F3001520684069C0F3FB
:100BB000C0062DB126B148F4007810202168C86025
:100BC00020680069C0F3001520684069C0F38016F2
:100BD0002DB126B148F48068102021680861206892
:100BE000406900F0010000283BD0206880687A4905
:100BF0000840884201D1012000E00020054620681D
:100C0000806876490840884201D1012000E0002038
:100C100006462068806872490840884201D1012058
:100C200000E0002007460DB906B9D7B120688068FA
:100C3000C0F3400520688068C0F3402620688068C3
:100C400000F001070DB906B91FB12046FFF7A5FE58
:100C500001E048F400682068806862490843216820
:100C600088602068C06800F0030520684069C0F310
:100C7000400625B11EB100212046FFF7ADFD2068DA
:100C8000006900F0030520684069C0F3001625B133
:100C90001EB101212046FFF79FFD206C40EA0800AD
:100CA00020642068806900F0010520684069C0F375
:100CB000002620684069C0F3C0372DB126B11FB1AE
:100CC000206C40F00100206420688069C0F340057A
:100CD00020684069C0F3402620684069C0F3C037EF
:100CE0002DB126B11FB1206C40F0020020642068B5
:100CF0008069C0F3800520684069C0F380262068C1
:100D00004069C0F3C0372DB126B11FB1206C40F04F
:100D1000040020642068806900F0700008B9012098
:100D200000E00020054620684069C0F3C026206826
:100D30004069C0F3C03795BB8EB387B32068806924
:100D400000F07005402D1BD006DC102D09D0202DA1
:100D50000CD0302D24D10EE0502D16D0602D1FD197
:100D600018E0206C40F0080020641AE0206C40F08D
:100D70001000206415E0206C40F02000206410E09A
:100D8000206C40F0400020640BE0206C40F08000BC
:100D9000206406E0206C40F48070206401E007E0ED
:100DA00000BF00BF2068806920F070002168886162
:100DB000206C78B1042021684860012084F83C0050
:100DC0002068406948F65B71884321684861204685
:100DD000FFF7CAFEBDE8F081010000040001000831
:100DE00000000110090501002DE9F041044600272B
:100DF0000026002514B90120BDE8F08194F83C00DC
:100E000028B9002084F83D00204600F0C3F80220F5
:100E100084F83C002068006820F002002168086027
:100E20002068006840F001002168086001F084F942
:100E300006460EE001F080F9801B0A2809D903203C
:100E400084F83C0000BF002084F83D0000BF032070
:100E5000D2E72068406800F001000028EAD020684E
:100E6000406800F00100002867D0A069012802D185
:100E700045F0800501E025F08005E069012802D1F8
:100E800045F0400501E025F04005206A012802D127
:100E900045F0200501E025F02005606A012802D117
:100EA00045F0100501E025F01005A06A012802D1E7
:100EB00045F0080501E025F00805E06A012802D1A7
:100EC00045F0040501E025F004052068006820F0E5
:100ED000FC00284321680860D4E902010843216925
:100EE0000843616908436168491E08432168C86175
:100EF0002068006820F001002168086001F01CF9FA
:100F000006460EE001F018F9801B0A2809D90320D3
:100F100084F83C0000BF002084F83D0000BF03209F
:100F20006AE72068406800F001000028EAD12068E4
:100F3000406800F0010000B90127012F06D1002010
:100F40002064012084F83C00002055E7042084F848
:100F50003C00012050E7000010B504460A49206813
:100F6000884210D10948C06920F000700749C86163
:100F70004FF44071064800F03DFE142001F0E6FAFF
:100F8000152001F0E3FA10BD00640040001002409B
:100F9000000C014010B586B0044622492068884202
:100FA0003ED100BF2048C06940F000701E49C861B2
:100FB0000846C06900F00070019000BF00BF8815AE
:100FC000029000200390049002A9184800F026FF28
:100FD0004FF400700290022003900320059002A9B4
:100FE000124800F01BFF00BF1148406820F4C040C9
:100FF0000F4948600846406840F48040486000BFA0
:1010000000220121142001F0BCFA142001F0ACFAF6
:1010100000220221152001F0B4FA152001F0A4FAF3
:1010200006B010BD0064004000100240000C0140FA
:10103000000001402DE9F04104460D4617464FF0EF
:101040000008002695B994F83C0022280BD094F8AB
:101050003C00422807D094F83C00622803D094F862
:101060003C00722802D10220BDE8F081012D11D18F
:1010700094F83C0032280BD094F83C00522807D05A
:1010800094F83C00622803D094F83C00722801D107
:101090000220E9E700BF94F83D00012801D10220B9
:1010A000E2E7012084F83D0000BFCDB994F83C0090
:1010B000122804D0322806D052280CD107E0422052
:1010C00084F83C000BE0622084F83C0007E07220CA
:1010D00084F83C0003E0222084F83C0000BF19E0C3
:1010E00094F83C00122804D0222806D042280CD1C3
:1010F00007E0522084F83C000BE0622084F83C00BA
:1011000007E0722084F83C0003E0322084F83C00C1
:1011100000BF00BF01F010F8804612E0781C80B1DB
:101120002FB101F009F8A0EB0800B84209D903205B
:1011300084F83C0000BF002084F83D0000BF03207D
:1011400092E725B92068C06800F0030003E020683A
:10115000006900F003000028E0D00DB9666B00E0E4
:10116000A66B206800F5D87000EB0510006800F051
:101170000400B060B06858B9206800F5D87000EB82
:101180000510006840F2FF7101EA505030600AE03B
:10119000206800F5D87000EB051000686FF0604122
:1011A00001EAD0007060206800F5D87000EB0510EF
:1011B000006800F00200F060206800F5D87000EBD5
:1011C0000510406800F00F003061206800F5D8700D
:1011D00000EB05104068C0F30720F061356220681D
:1011E00000F5D87000EB051080683075206800F5B8
:1011F000D87000EB05108068010A7175206800F551
:10120000D87000EB05108068010CB175206800F5FE
:10121000D87000EB05108068000EF075206800F5AE
:10122000D87000EB0510C0683076206800F5D870E3
:1012300000EB0510C068010A7176206800F5D870CF
:1012400000EB0510C068010CB176206800F5D8707D
:1012500000EB0510C068000EF0761DB92020216853
:10126000C86002E0202021680861CDB994F83C00F4
:10127000422804D0622806D072280CD107E0122040
:1012800084F83C000BE0322084F83C0007E0522058
:1012900084F83C0003E0012084F83C0000BF19E022
:1012A00094F83C00522804D0622806D072280CD151
:1012B00007E0122084F83C000BE0222084F83C0078
:1012C00007E0422084F83C0003E0012084F83C0061
:1012D00000BF00BF00BF002084F83D0000BF00BF7A
:1012E000C2E6024689B992F83C0022280BD092F857
:1012F0003C00422807D092F83C00622803D092F8C4
:101300003C00722801D102207047012911D192F8C6
:101310003C0032280BD092F83C00522807D092F8BB
:101320003C00622803D092F83C00722801D10220D0
:10133000EAE700BF92F83D00012801D10220E3E76F
:10134000012082F83D0000BFC9B992F83C00122884
:1013500004D0322806D052280CD107E0422082F86F
:101360003C000BE0622082F83C0007E0722082F82B
:101370003C0003E0222082F83C0000BF19E092F814
:101380003C00122804D0222806D042280CD107E0C5
:10139000522082F83C000BE0622082F83C0007E01B
:1013A000722082F83C0003E0322082F83C0000BF4B
:1013B00000BF002010641068406948F601731843AC
:1013C0001368586100BF002082F83D0000BF31B9AA
:1013D0001068406940F00A001368586105E0106821
:1013E000406940F050001368586100208CE700000D
:1013F00070B594B004460025002620210CA8FEF705
:10140000BAFE202104A8FEF7B6FE002005E0616BBD
:101410001431095C0CAA1154401C616B09698142AA
:10142000F5D8606B4068D24988427CD19DF8300085
:10143000FE2862D19DF83100EF285ED19DF8320080
:1014400090B99DF8330002280ED19DF8340007288A
:101450000AD19DF83500042806D19DF836000628EB
:1014600002D19DF8370080B19DF833009DF832100D
:1014700000EB012085B29DF8346005FA06F0BD4905
:1014800008609DF83500BC490870642200212046A0
:10149000FFF7D0FD00282FD100BF05E0616B1431AC
:1014A000095C0CAA1154401C616B09698142F5D892
:1014B0009DF83600EF28EED19DF83700FE28EAD1DE
:1014C0009DF831009DF8301000EB0120AB490880F9
:1014D0000846008800EB80004FF6FF7101EA4000EB
:1014E000A64908805720A64908704A204870432022
:1014F00088700020C870087133E19DF83100FE2823
:1015000012D19DF8350000909DF834309DF83320BD
:101510009CA104A802F0E2FF002304AA1946282097
:1015200002F082FC1DE13CE09DF831002E28E3D161
:101530009DF8300000F00F0003280CD19DF8350015
:101540008DF830009DF836008DF831009DF8370099
:101550008DF8320005E19DF8300000F00F000428FE
:10156000CAD19DF833008DF833009DF834008DF812
:1015700034009DF834009DF833109DF83220CDE9F9
:10158000002102909DF831309DF8302080A104A800
:1015900002F0A4FF002304AA0321184602F044FC31
:1015A000DFE0606B40687F49884229D19DF83100B7
:1015B0009DF8301000EB0120704908800846008833
:1015C00000EB80004FF6FF7101EA40006B49088094
:1015D0009DF835009DF8341000EB012085B29DF890
:1015E000366005FA06F0634908604A2064490870CD
:1015F00044204870432088700020C8700871B0E013
:101600009DF8300000F0F0006749097801F0F00122
:10161000884287D19DF83100242849D19DF83000B7
:1016200000F00F00F0BB642200212046FFF702FD0E
:1016300000288FD1082007E0616B1431A0F1080267
:10164000895C0CAA1154401C616B09690831814204
:10165000F2D89DF83900242829D19DF8380000F0EF
:101660000F0001287DD19DF834009DF8331000EB68
:101670000120424908809DF836009DF8351000EBA6
:10168000012085B29DF8376005FA06F039490860F7
:101690009DF83B00384908704720394908704320BD
:1016A000487000E004E000208870C870087158E0BD
:1016B0009DF83100FE2811D19DF8350000909DF86D
:1016C00034309DF833202FA104A802F007FF002337
:1016D00004AA1946282002F0A7FB42E09DF8310039
:1016E0002E283ED1606B007D00F00F0003280FD143
:1016F000606B407D2E280BD1606B407E8DF83000F2
:10170000606B807E8DF83100606BC07E8DF832009A
:10171000606B007D00F00F00042822D1606B407DDB
:101720002E281ED1606BC07D8DF83300606B007E6B
:101730008DF834009DF834109DF833009DF8322068
:10174000CDE9002002919DF831309DF8302010A1A4
:1017500004A802F0C3FE002304AA0321184602F0E5
:1017600063FB00212046FFF7BCFD14B070BD0000F4
:1017700000003110040000200800002002000020BA
:101780000A0000205625642E256425640000000010
:10179000323025642D25642D2564205625642E25A0
:1017A0006400000002030900000000202DE9F04160
:1017B00004460E46042500272068806800F08060FB
:1017C000B0F1806F0DD02068806800F00060B0F14B
:1017D000006F06D02068806800F08050B0F1805F14
:1017E0007ED100BF94F83D00012802D10220BDE85F
:1017F000F081012084F83D0000BF94F83C002228CD
:1018000004D0322806D062280CD107E0422084F8A8
:101810003C000BE0522084F83C0007E0722084F882
:101820003C0003E0122084F83C0000BF00BF2068A9
:10183000806800F0806008B1002507E020688068BB
:1018400000F0006008B1012500E00225206800F5E5
:10185000C07000EB0510006800F00101206800F581
:10186000C07000EB05100160206B806898B920689B
:1018700000F5C07000EB05100068216BC968226B91
:10188000128841EA42510843216801F5C07101EB19
:101890000511086015E0206800F5C07000EB051028
:1018A0000068216B8968226B526841EAC201226B91
:1018B000D26811430143206800F5C07000EB0510A9
:1018C0000160206B007C00F00F00216B0861206834
:1018D00000F5C07000EB0510406820F00F0100E03B
:1018E000B1E0206800F5C07000EB05104160206891
:1018F00000F5C07000EB05104068216B09690843D2
:10190000216801F5C07101EB05114860206BC07DB5
:101910000106206B807D41EA0041206B407D41EA59
:101920000020216B097D0843216801F5C07101EB9E
:1019300005118860206BC07E0106206B807E41EA25
:101940000041206B407E41EA0021206B007E014374
:10195000206800F5C07000EB0510C160206800F53C
:10196000C07000EB0510006840F00101206800F530
:10197000C07000EB0510016000F0DEFB074620E0C0
:10198000701CF0B126B100F0D7FBC01BB04218D9D3
:10199000032084F83C001DB980202168886009E09C
:1019A000012D03D1E8032168886003E04FF40000B3
:1019B0002168886000BF002084F83D0000BF03203C
:1019C00015E74DB92068806821490840884201D157
:1019D000012016E0002014E0012D09D12068806864
:1019E0001C490840884201D101200AE0002008E09B
:1019F0002068806818490840884201D1012000E031
:101A000000200028BCD094F83C00422804D0522882
:101A100006D072280CD107E0222084F83C000BE0AD
:101A2000322084F83C0007E0622084F83C0003E0A8
:101A3000012084F83C0000BF00BF00BF002084F8F4
:101A40003D0000BFD3E6042084F83C000120CEE630
:101A5000010000040001000800000110704770B58B
:101A60000446002500BF94F83D00012801D1022062
:101A700070BD012084F83D0000BF022084F83C00C6
:101A80002068006820F002002168086000F054FB24
:101A900005460EE000F050FB401B0A2809D9032040
:101AA00084F83C0000BF002084F83D0000BF032004
:101AB000DEE72068406800F002000228EAD02068D3
:101AC000406800F0020030B100BF002084F83D0003
:101AD00000BF0120CCE7012084F83C0000BF0020BB
:101AE00084F83D0000BF00BFC2E7014600200A683D
:101AF000126822F00E020B681A600A68126822F05F
:101B000001020B681A6091F8403001229A40CB6BB9
:101B10005A60012281F8212000BF002281F8202094
:101B200000BF704770B50446002594F821000228D4
:101B300003D00420A063012548E02068006820F05D
:101B40000E00216808602068006820F0010021680C
:101B500008601F492068884201D1012026E01C4905
:101B600014312068884201D110201FE01849283123
:101B70002068884201D1801518E015493C31206861
:101B8000884201D1801411E0114950312068884207
:101B900002D14FF4803009E00D4964312068884259
:101BA00002D14FF4801001E04FF0807008490839ED
:101BB0004860012084F8210000BF002084F8200044
:101BC00000BF606B10B12046616B8847284670BD2E
:101BD0000800024031B500F0AFFA0546009C601CD9
:101BE00000B1641C00BF00F0A7FA401BA042FAD36A
:101BF00038BD00002DE9F04102460B4600200021CF
:101C0000002400267FE00127874007EA030100291E
:101C100078D0FF2901D8174600E0171D3D46FF295F
:101C200001D8870002E0A0F10807BF003E462F68F8
:101C30004FF00F0C0CFA06FC27EA0C074FF0040CCF
:101C40000CFA06FC47EA0C072F60D7688F43D76071
:101C5000304F4FEA900C57F82C4087074FEA177C1B
:101C60000F2707FA0CF73C402B4FBA4201D100274F
:101C70000FE02A4FBA4201D101270AE0284FBA42A9
:101C800001D1022705E0274FBA4201D1032700E026
:101C900004274FEA807C4FEA1C7C07FA0CF7A74226
:101CA00030D187074FEA177C0F2707FA0CF4194F3A
:101CB0004FEA900C57F82C70A743DFF858C04FEA52
:101CC00090084CF82870184F3F688F43DFF858C0D1
:101CD000CCF800700CF104073F688F430CF1040C42
:101CE000CCF800700CF104073F688F430CF1040C32
:101CF000CCF800700CF104073F688F430CF1040C22
:101D0000CCF80070401C23FA00F7002F7FF47BAF63
:101D1000BDE8F0810800014000080140000C0140CE
:101D20000010014000140140000401402DE9F04181
:101D300098B00446402108A8FEF71DFA2021684605
:101D4000FEF719FA0027B84600250026B4F5807F73
:101D500048D10222114608A803F0C0FA9DF82000DD
:101D60000A2837D19DF821000D2833D19DF8211084
:101D700002220DF1220003F0B1FA694608A803F02F
:101D80003BFA01282ED19DF804009DF8031000EBCA
:101D90000120164908809DF806009DF8051000EB0B
:101DA000012085B29DF8076005FA06F01049086029
:101DB0009DF808000F49087055200F490870412010
:101DC0004870522088705420C8703120087100205B
:101DD000487107E0094801F014FA05220F2108A80C
:101DE00003F07CFA18B0BDE8F0810000020000208A
:101DF00004000020080000200A00002078000020D5
:101E000010B5044604480068204020B10248046030
:101E10002046FFF78BFF10BD140401402DE9F84761
:101E200003460024002000258446002700226EE19E
:101E30004FF0010808FA02F4D1F8008008EA040023
:101E4000A0427DD1DFF8D0A2D1F80480A8EB0A0926
:101E5000D0453AD014DCB8F1030F50D009DCB8F10A
:101E6000000F31D0B8F1010F1CD0B8F1020F49D1E9
:101E700020E0B8F1110F18D0B8F1120F42D11EE0D6
:101E8000B9F5881F25D006DCB9F5803F20D0B9F51B
:101E9000801F37D11AE0B9F5001F18D0B9F5041F1B
:101EA00030D117E0D1F80CC02DE0D1F80C8008F14A
:101EB000040C28E0D1F80C8008F1080C23E0D1F8DC
:101EC0000C8008F10C0C1EE000BF00BF00BF00BF7B
:101ED00000BF00BFD1F80880B8F1000F02D14FF069
:101EE000040C0BE0D1F80880B8F1010F03D14FF0DA
:101EF000080C1C6102E04FF0080C5C6103E04FF03D
:101F0000000C00E000BF00BFFF2801D8984601E0A8
:101F100003F104084646FF2802D84FEA820803E08E
:101F2000A2F108084FEA88084746D6F800804FF02B
:101F30000F0909FA07F928EA09080CFA07F900E07D
:101F400088E048EA0908C6F80080D1F8048008F063
:101F50008058B8F1805F7DD100BFDFF8C081D8F82C
:101F6000188048F00108DFF8B491C9F81880C84615
:101F7000D8F8188008F00108CDF8008000BF00BF35
:101F80004FEAB9384FEA920958F829504FEA827857
:101F90004FEA18794FF00F0808FA09F825EA080502
:101FA000DFF87C81434502D14FF0000816E0DFF8EE
:101FB0007481434502D14FF001080FE0DFF86881DA
:101FC000434502D14FF0020808E0DFF86081434545
:101FD00002D14FF0030801E04FF004084FEA827984
:101FE0004FEA197908FA09F848EA0505DFF840814F
:101FF0004FEA920948F82950D1F8048008F4803853
:10200000B8F5803F0AD1DFF82C81D8F8008048EA83
:102010000008DFF82091C9F8008009E0DFF814819A
:10202000D8F8008028EA0008DFF80891C9F8008095
:10203000D1F8048008F40038B8F5003F10D1DFF87B
:10204000F48008F10408D8F8008048EA0008DFF8B6
:10205000E49000E05AE009F10409C9F800800DE0BD
:10206000DFF8D08008F10408D8F8008028EA0008DA
:10207000DFF8C09009F10409C9F80080D1F80480A4
:1020800008F48018B8F5801F0ED1DFF8A88008F199
:102090000808D8F8008048EA0008DFF8989009F1AD
:1020A0000809C9F800800DE0DFF8888008F1080809
:1020B000D8F8008028EA0008DFF8789009F10809CC
:1020C000C9F80080D1F8048008F40018B8F5001FA2
:1020D0000ED1DFF8608008F10C08D8F8008048EADB
:1020E0000008DFF8509009F10C09C9F800800DE0F4
:1020F000DFF8408008F10C08D8F8008028EA0008D2
:10210000DFF8309009F10C09C9F80080521C102A40
:10211000FFF48EAEBDE8F8870000111000100240F9
:1021200000080140000C0140001001400014014073
:1021300008000140000401400148006870470000A9
:10214000140000200146086C7047000070B504467A
:10215000002600250CB9012070BD94F83D0028B977
:10216000002084F83C00204600F04EF9242084F83A
:102170003D002068006820F001002168086000F040
:102180002BFB05463948B5FBF0F620684660384918
:102190006068884201D8701C07E04FF49670704365
:1021A0004FF47A71B0FBF1F0401C216808623049AD
:1021B000606888420ED860684000B5FBF0F0C0F35C
:1021C0000B00042801D204202DE060684000B5FB1C
:1021D000F0F028E0A06828B9606800EB4000B5FB8B
:1021E000F0F008E0606800EBC00101EB0010B5FB07
:1021F000F0F040F48040C0F30B0008B9012012E079
:10220000A06828B9606800EB4000B5FBF0F008E07A
:10221000606800EBC00101EB0010B5FBF0F040F48A
:10222000804040F400402168C861D4E907010843B8
:1022300021680860D4E90310084321688860D4E964
:10224000050108432168C8602068006840F001006B
:102250002168086000202064202084F83D000020D0
:10226000206384F83E0000BF76E7000040420F0084
:10227000A08601002DE9F8430446894616461F460C
:10228000DDF820800025FFF757FF054694F83D0054
:1022900020287DD11923012259492046009501F0BB
:1022A00004FB10B10220BDE8F88300BF94F83C00A5
:1022B000012801D10220F6E7012084F83C0000BF8C
:1022C0002068006800F0010028B92068006840F02C
:1022D0000100216808602068006820F4006021681F
:1022E0000860212084F83D00102084F83E00002082
:1022F0002064666267854348E062608D20852B46D6
:1023000042464946204601F045FA80B1206C042837
:1023100006D100BF002084F83C0000BF0120C2E7C6
:1023200000BF002084F83C0000BF0320BBE700BFD3
:10233000002000902068406900902068806900902B
:1023400000BF00BF46E02A464146204601F041FB5F
:1023500060B1206C042807D12068006840F4007048
:102360002168086001209EE703209CE7616A481C01
:102370006062087821680861608D401E6085208D4C
:10238000401E208520684069C0F3800078B100E0DD
:1023900034E0208D58B1616A481C60620878216879
:1023A0000861608D401E6085208D401E20852A4674
:1023B0004146204601F04EFA60B1206C042807D156
:1023C0002068006840F400702168086001206AE716
:1023D000032068E7208D0028B5D12068006840F40C
:1023E000007021680860202084F83D00002084F8F7
:1023F0003E0000BF84F83C0000BF54E7022052E7D3
:10240000020010000000FFFF10B586B004460F491F
:102410002068884217D1C020029012200390032028
:10242000059002A90A48FFF7F9FC00BF0948C069F6
:1024300040F400100749C8610846C06900F4001064
:10244000019000BF00BF06B010BD00000054004066
:10245000000C01400010024002480068401C014985
:10246000086070471400002010B50848006840F06C
:10247000100006490860032000F0C2F8002000F0B8
:1024800007F800F019F8002010BD000000200240FD
:1024900070B50446074800684FF47A71B0FBF1F557
:1024A000284600F03AFC00222146501E00F069F850
:1024B000002070BD1000002008B500BF21488069D1
:1024C00040F001001F4988610846806900F0010062
:1024D000009000BF00BF032000F092F800221146D8
:1024E0006FF00B0000F04DF8002211466FF00A006B
:1024F00000F047F8002211466FF0090000F041F8A3
:1025000000221146501F00F03CF800221146101F17
:1025100000F037F800221146901E00F032F8002239
:102520001146501E00F02DF800BF0748406820F00B
:10253000E060054948600846406840F00070486027
:1025400000BF08BD001002400000014000BF00F0C5
:102550001F0201219140034A430942F8231000BFA2
:102560007047000080E100E000BF00F01F02012181
:1025700091404209920002F1E022C2F8001100BF2E
:1025800070472DE9F05F80460D461646002701F0A2
:1025900067FB074639462A46334601F00700C0F17B
:1025A000070ABAF1040F02D94FF0040A01E0C0F1A2
:1025B000070AD14600F1040ABAF1070F02D24FF020
:1025C000000A01E0A0F1030AD4464FF0010A0AFA1A
:1025D00009FAAAF1010A0AEA020A0AFA0CFA4FF009
:1025E000010B0BFA0CFBABF1010B0BEA030B4AEAF4
:1025F0000B042146404601F03BFBBDE8F09F000084
:1026000000BF00F00702064B19684FF6FF031940A0
:10261000044B0B4343EA0221014B196000BF704792
:102620000CED00E00000FA0570B504460D460026EA
:102630006248006800F00700A8420ED25F480068B8
:1026400020F0070028435D4908600846006800F054
:102650000700A84201D0012070BD207800F00200E0
:10266000022807D15648406820F0F000A1680843CE
:1026700053494860207800F0010000285DD0606870
:10268000012806D14E48006800F4003090B90120BE
:10269000E2E76068022806D14948006800F000704F
:1026A00040B90120D8E74648006800F0020008B9A8
:1026B0000120D1E74248406820F0030061680843E8
:1026C0003F494860FFF738FD06466068012810D191
:1026D00008E0FFF731FD801B41F28831884201D9C3
:1026E0000320B9E73648406800F00C000428F0D118
:1026F00023E06068022810D108E0FFF71DFD801B71
:1027000041F28831884201D90320A5E72C4840686E
:1027100000F00C000828F0D10FE008E0FFF70CFDF6
:10272000801B41F28831884201D9032094E7244874
:10273000406800F00C000028F0D12048006800F04C
:102740000700A8420ED91D48006820F00700284362
:102750001A4908600846006800F00700A84201D046
:10276000012079E7207800F00400042807D11448FC
:10277000406820F4E060E16808431149486020782F
:1027800000F00800082808D10D48406820F4605087
:10279000216940EAC1000A49486000F03DF8084953
:1027A0004968C1F30311074A515CC84006490860F3
:1027B0000020FFF76DFE00204EE7000000200240E1
:1027C000001002407C5500081000002001480068FD
:1027D000704700001000002000B5FFF7F7FF044924
:1027E0004968C1F30221034A515CC84000BD0000A2
:1027F000001002408C55000800B5FFF7E7FF0449C0
:102800004968C1F3C221034A515CC84000BD0000C1
:10281000001002408C550008F0B585B00FF2700C26
:102820009CE8E01001A8A0E8E0101DA52D68009527
:10283000002100240022002300201A4D696801F0C5
:102840000C05FDB1042D02D0082D1AD101E0164867
:102850001AE001ADC1F38346AB5D01F480355DB193
:10286000104D6D68C5F340451DF805400E4DB5FB94
:10287000F4F505FB03F202E00C4D03FB05F21046F4
:1028800002E000BF084800BF00BF05B0F0BD000077
:1028900002030405060708090A0B0C0D0E0F1010A1
:1028A000010200000010024000127A0000093D0001
:1028B000F8B504460025207800F00100002878D003
:1028C000F848406800F00C0004280CD0F548406837
:1028D00000F00C00082811D1F248406800F4803064
:1028E000B0F5803F0AD1EF48006800F400300028BE
:1028F0005FD0606800285CD10120F8BD00BF60682F
:10290000B0F5803F06D1E748006840F48030E549E3
:10291000086028E0606858B9E248006820F4803018
:10292000E04908600846006820F4802008601AE04A
:102930006068B0F5A02F0BD1DA48006840F4802021
:10294000D84908600846006840F4803008600AE012
:10295000D448006820F48030D249086008460068F6
:1029600020F48020086000BF606888B1FFF7E4FBB6
:10297000054606E0FFF7E0FB401B642801D9032071
:10298000BBE7C848006800F400300028F2D010E02F
:10299000FFF7D2FB054606E0FFF7CEFB401B64289D
:1029A00001D90320A9E7BF48006800F400300028DF
:1029B000F2D1207800F00200022857D1B9484068CF
:1029C00000F00C0050B1B748406800F00C00082837
:1029D00018D1B448406800F4803098B9B148006814
:1029E00000F0020020B12069012801D0012084E715
:1029F000AC48006820F0F800616940EAC100A949CC
:102A0000086033E02069E8B10120A7490860FFF7BA
:102A100093FB054606E0FFF78FFB401B022801D918
:102A200003206AE79F48006800F002000028F2D007
:102A30009C48006820F0F800616940EAC1009949AB
:102A4000086013E0002098490860FFF775FB054611
:102A500006E0FFF771FB401B022801D903204CE779
:102A60009048006800F002000028F2D1207800F0C1
:102A7000080008282DD1A069B8B101208B49086051
:102A8000FFF75AFB054606E0FFF756FB401B0228FE
:102A900001D9032031E78348406A00F00200002892
:102AA000F2D0012001F0EEF913E000207F49086028
:102AB000FFF742FB054606E0FFF73EFB401B0228FE
:102AC00001D9032019E77748406A00F00200002886
:102AD000F2D1207800F00400042873D10026714858
:102AE000C06900F0805070B900BF6E48C06940F006
:102AF00080506C49C8610846C06900F08050009061
:102B000000BF00BF01266A48006800F48070B0B9B9
:102B10006748006840F4807065490860FFF70CFB67
:102B2000054606E0FFF708FB401B642801D9032097
:102B3000E3E65F48006800F480700028F2D000BF30
:102B4000E068012806D15748006A40F00100554965
:102B5000086227E0E06858B95248006A20F0010096
:102B6000504908620846006A20F00400086219E033
:102B7000E06805280BD14B48006A40F00400494941
:102B800008620846006A40F0010008620AE0454811
:102B9000006A20F00100434908620846006A20F0FC
:102BA0000400086200BFE068A0B1FFF7C5FA05465F
:102BB00009E0FFF7C1FA401B41F28831884202D98F
:102BC00003209AE622E03748006A00F0020000285D
:102BD000EFD012E0FFF7B0FA054608E0FFF7ACFAD5
:102BE000401B41F28831884201D9032085E62D48F7
:102BF000006A00F002000028F0D1012E05D129481A
:102C0000C06920F080502749C86100BFE069C8B39F
:102C10002448406800F00C00082860D0E0690228D1
:102C200048D1002020490866FFF786FA054606E0ED
:102C3000FFF782FA401B022801D903205DE61948FC
:102C4000006800F000700028F2D1206AB0F5803FE3
:102C500007D11448406820F40030A16808431149A6
:102C60004860D4E9080108430E49496821F4741109
:102C700008430C49486001200B490866FFF75CFADD
:102C8000054607E02DE0FFF757FA401B022801D95F
:102C9000032032E60348006800F000700028F2D0FC
:102CA0001FE0000000100240000042428004424247
:102CB0000070004000200C490866FFF73DFA054609
:102CC00006E0FFF739FA401B022801D9032014E679
:102CD0000648006800F000700028F2D101E00120F1
:102CE0000BE6002009E6000000004242001002400E
:102CF000042808D14FF0E021096941F004014FF0A8
:102D0000E022116107E04FF0E021096921F00401A0
:102D10004FF0E02211617047704770B504462546B8
:102D2000681EB0F1807F01D301200FE0681E4FF0D4
:102D3000E02148610F214FF0FF3000F099FF0020A3
:102D40004FF0E021886107200861002070BD10B5B8
:102D5000FFF7E2FF10BD70477047024600BF92F8D0
:102D60003C00012801D102207047012082F83C007C
:102D700000BF022082F83D001068406820F070001B
:102D800013685860106840680B68184313685860EF
:102D90001068806820F08000136898601068806870
:102DA0004B68184313689860012082F83D0000BF0B
:102DB000002082F83C0000BF00BFD5E710B50446F4
:102DC0000CB9012010BD94F83D0028B9002084F80A
:102DD0003C00204600F00CF8022084F83D00211D44
:102DE000206801F007F9012084F83D000020E9E7A0
:102DF00038B504462068B0F1804F15D100BF0B48AC
:102E0000C06940F001000949C8610846C06900F086
:102E10000100009000BF00BF002205211C20FFF729
:102E2000B0FB1C20FFF7A0FB38BD000000100240E3
:102E300001460868C06840F001000A68D060086870
:102E4000006840F001000A681060002070470146E9
:102E50000868C06820F001000A68D06000BF0868F8
:102E6000006A41F21112104050B90868006A9210CD
:102E7000104028B90868006820F001000A68106056
:102E800000BF002070472DE9F04104460D460026A2
:102E900000BF94F83C00012802D10220BDE8F08177
:102EA000012084F83C0000BF022084F83D00206827
:102EB000866826F0770626F47F46206886602868B4
:102EC00050283BD00CDC202860D004DC002853D0F4
:102ED000102865D155E030285DD0402860D141E010
:102EE000602835D070280DD0B0F5805F03D0B0F5E4
:102EF000005F55D115E02068806820F00700216848
:102F000088604EE0D5E902136A68206801F0ACF8E9
:102F10002068866826F0770646F077062068866087
:102F20003FE0D5E902136A68206801F09DF8206847
:102F3000806840F480402168886032E0EA6869680F
:102F4000206801F0A7F85021206801F099F828E0E6
:102F5000EA686968206801F0B2F86021206801F031
:102F60008FF81EE0EA686968206801F093F8402154
:102F7000206801F085F814E00021206801F080F855
:102F80000FE01021206801F07BF80AE02021206882
:102F900001F076F805E03021206801F071F800E0DA
:102FA00000BF00BF012084F83D0000BF002084F86E
:102FB0003C0000BF00BF71E7704710B504462068B1
:102FC0000069C0F34000D8B12068C068C0F3400079
:102FD000B0B16FF0020021680861012020772068FD
:102FE000806900F0030018B12046FFF7E5FF05E017
:102FF000204600F0ADF8204600F0ABF80020207726
:1030000020680069C0F38000D8B12068C068C0F3B0
:103010008000B0B16FF004002168086102202077C1
:103020002068806900F4407018B12046FFF7C4FFA3
:1030300005E0204600F08CF8204600F08AF80020D9
:10304000207720680069C0F3C000D8B12068C0684C
:10305000C0F3C000B0B16FF008002168086104201F
:1030600020772068C06900F0030018B12046FFF700
:10307000A3FF05E0204600F06BF8204600F069F859
:103080000020207720680069C0F30010D8B12068C4
:10309000C068C0F30010B0B16FF010002168086183
:1030A000082020772068C06900F4407018B12046DD
:1030B000FFF782FF05E0204600F04AF8204600F0C6
:1030C00048F8002020772068006900F0010058B11E
:1030D0002068C06800F0010030B16FF00100216885
:1030E0000861204600F036F820680069C0F3C0107F
:1030F00058B12068C068C0F3C01030B16FF08000D4
:10310000216808612046FFF726FE20680069C0F3A9
:10311000801058B12068C068C0F3801030B16FF0E3
:10312000400021680861204600F06AF820680069C4
:10313000C0F3401058B12068C068C0F3401030B1EF
:103140006FF02000216808612046FFF705FE10BDE2
:10315000704770472DE9F04188B0804620216846CD
:10316000FDF709F81E4A1FA1684601F0B7F90023D0
:103170006A461946562000F057FE1B480088FDF7A6
:1031800043F807461949FDF701F80446FDF741F8F1
:1031900005462A460B4616A1684601F09FF9002312
:1031A0006A460121282000F03FFE13480068FDF721
:1031B0002BF807461149FCF7E9FF0446FDF729F80B
:1031C00005462A460B460AA1684601F087F9002306
:1031D0006A460221282000F027FE08B0BDE8F081F1
:1031E0000A000020257300000200002000007A443D
:1031F000252E3366000000000400002000401C461D
:10320000704710B504462068C06820F4F07021684B
:10321000C8602068406920F001002168486120688A
:10322000406900F0800068B12068406920F08000AB
:1032300021684861206B28B10020216B4863206B16
:10324000FEF753FC2068406900F0400068B1206838
:10325000406920F0400021684861606B28B100207F
:10326000616B4863606BFEF740FC0020E084E08502
:10327000E063202084F83A0084F83900002010BD73
:103280000349884202D10121024A117070470000AF
:10329000B8000020090000202DE9F047044620680E
:1032A00005682068C668206847694FF00008C14675
:1032B00005F00F08B8F1000F0AD105F0200038B171
:1032C00006F0200020B1204600F039FFBDE8F0876D
:1032D000B8F1000F6DD007F0010018B906F4907036
:1032E000002866D005F0010030B106F4807018B1F6
:1032F000E06B40F00100E06305F0040030B107F03E
:10330000010018B1E06B40F00200E06305F002003C
:1033100030B107F0010018B1E06B40F00400E06349
:1033200005F0080030B107F0010018B1E06B40F083
:103330000800E063E06B68B305F0200028B106F0F8
:10334000200010B1204600F0FAFE20684069C0F36A
:103350008019E06B00F0080010B9B9F1000F22D01D
:10336000204600F0CCFE2068406900F04000B0B17B
:103370002068406920F0400021684861606B50B1CE
:103380001748616B4863606BFEF7CCFB10B1606B54
:10339000416B88470CE02046FFF772FF08E02046AB
:1033A000FFF76EFF04E02046FFF76AFF0020E063AE
:1033B0008CE705F0800030B106F0800018B120469F
:1033C00000F0F4FF82E705F0400030B106F0400065
:1033D00018B1204600F0A3FE78E700BF76E70000B2
:1033E000EB40000810B504460CB9012010BDA069DF
:1033F00000B100E000BF94F8390028B9002084F83B
:103400003800204600F028F8242084F8390020688D
:10341000C06820F400502168C860204600F0E2FE39
:103420002068006920F490402168086120684069A4
:1034300020F02A00216848612068C06840F40050EC
:103440002168C8600020E063202084F8390084F8F7
:103450003A000020CAE7000010B586B004462B49A8
:103460002068884222D100BF2948806940F480400A
:10347000274988610846806900F48040019000BFB8
:1034800000BF48150290022003900320059002A976
:103490002048FEF7C3FC4FF48060029000200390A8
:1034A000049002A91B48FEF7B9FC2CE01A492068D9
:1034B000884228D100BF1648C06940F40030144942
:1034C000C8610846C06900F40030019000BF00BF29
:1034D00004200290022003900320059002A90D48C9
:1034E000FEF79CFC0820029000200390049002A9A3
:1034F0000848FEF793FC002204212620FFF741F83C
:103500002620FFF731F806B010BD0000003801405A
:103510000010024000080140004400402DE9F8433B
:1035200004460D4616461F464FF0000994F83A002F
:10353000202860D105B116B90120BDE8F88300BF8D
:1035400094F83800012801D10220F6E7012084F820
:10355000380000BF0020E063222084F83A00FEF724
:10356000EBFD8146A685E68539E0E08D401EE085CD
:10357000A068B0F5805F1BD14B4600222021204679
:10358000009700F047FF08B10320D6E7A84620695E
:1035900038B920684068C0F30800A8F80000AD1CE6
:1035A0001DE020684068C0B2A8F800006D1C16E05D
:1035B0004B46002220212046009700F02BFF08B147
:1035C0000320BAE7206920B92068406805F8010B9C
:1035D00005E02068406800F07F0005F8010BE08DF1
:1035E0000028C2D1202084F83A0000BF002084F8CF
:1035F000380000BFA1E702209FE710B5034693F80B
:103600003A0020282FD101B10AB9012010BD00BF16
:1036100093F83800012801D10220F7E7012083F850
:10362000380000BF99629A85DA850020D86322208D
:1036300083F83A0000BF002083F8380000BF186804
:10364000C06840F480701C68E0601868406940F011
:1036500001001C6860611868C06840F020001C68A8
:10366000E0600020D2E70220D0E700000349884252
:1036700002D10121024A117070470000B8000020F9
:10368000090000202DE9F84304460D4616461F4662
:103690004FF0000994F8390020285CD105B116B923
:1036A0000120BDE8F88300BF94F83800012801D15B
:1036B0000220F6E7012084F8380000BF0020E06314
:1036C000212084F83900FEF737FD8146A684E68480
:1036D0002BE0E08C401EE084A068B0F5805F16D13E
:1036E0004B46002280212046009700F093FE08B14F
:1036F0000320D6E7A846B8F80000C0F30800216808
:103700004860206908B9AD1C0FE06D1C0DE04B4608
:10371000002280212046009700F07CFE08B10320A3
:10372000BFE715F8010B21684860E08C0028D0D174
:103730004B46002240212046009700F06BFE08B166
:103740000320AEE7202084F8390000BF002084F871
:10375000380000BFA5E70220A3E7704700BFFEE7DF
:10376000014608684069C0F3802088B16FF480602A
:103770000A6850610420086400200863202081F852
:103780003D0000BF002081F83C0000BF01207047D1
:103790000020FCE72DE9F84304460D4617469846FD
:1037A000E66A042E04D0012E02D016F5803F06D121
:1037B0002068006840F480702168086008E0206B91
:1037C000122805D12068006840F4807021680860E4
:1037D0003B4600224FF001112046CDF8008000F05A
:1037E00064F810B10320BDE8F8832069B0F5804F7C
:1037F00004D105F0FE002168086117E005F440706F
:10380000F02141EAE0102168086143463A46104938
:10381000204600F088F830B1206C042801D1012046
:10382000E1E70320DFE7E8B22168086143463A4652
:103830000749891F204600F076F830B1206C042833
:1038400001D10120CFE70320CDE70020CBE7000026
:103850000800010070B504460D4616461DE02046DE
:10386000FFF77EFF08B1012070BD681CA8B125B12B
:10387000FEF762FC801BA8420FD9206C40F02000AC
:10388000206400202063202084F83D0000BF002039
:1038900084F83C0000BF0320E6E720684069C0F3DD
:1038A00080000028DBD00020DEE72DE9F04104464F
:1038B0000D4617461E46DDF8188017E0701CA8B1AB
:1038C0002EB1FEF739FCA0EB0800B0420ED9002063
:1038D0002063202084F83D00002084F83E0000BFD3
:1038E00084F83C0000BF0320BDE8F081C5F3074029
:1038F00001280AD120684069A9B20840A9B28842CB
:1039000001D101200BE0002009E020688069A9B204
:103910000840A9B2884201D1012000E00020B8424D
:10392000CCD00020E0E72DE9F04104460D461646D4
:103930001F4631E020684069C0F38020C0B1206894
:10394000006840F40070216808606FF480602168AE
:1039500048610420206400202063202084F83D007A
:1039600000BF002084F83C0000BF0120BDE8F081CA
:10397000701C88B126B1FEF7DFFBC01BB0420BD92B
:1039800000202063202084F83D0000BF002084F840
:103990003C0000BF0320E9E7C5F3074001280AD136
:1039A00020684069A9B20840A9B2884201D101202B
:1039B0000BE0002009E020688069A9B20840A9B2A4
:1039C000884201D1012000E000200028B2D0002070
:1039D000CCE770B504460D4616461DE02046FFF7BD
:1039E000BFFE08B1012070BD681CA8B125B1FEF76B
:1039F000A3FB801BA8420FD9206C40F0200020645C
:103A000000202063202084F83D0000BF002084F8BF
:103A10003C0000BF0320E6E720684069C0F3C01007
:103A20000028DBD00020DEE710B510481049086000
:103A30000820486000210E488160C1604FF4803149
:103A400001610021416181610121C16100210162A7
:103A50000121416200218162C162FDF7C5F918B1FF
:103A6000452104A000F038FD10BD000000640040B6
:103A7000F80000202E2E2F5372632F63616E2E6389
:103A80000000000000B585B000BF1748806940F015
:103A90000400154988610846806900F00400009020
:103AA00000BF00BF00BF0846806940F00800886181
:103AB0000846806900F00800009000BF00BF88152C
:103AC00001900A4802900020039001A90848FEF7DF
:103AD000A5F9002204211720FEF753FD1720FEF759
:103AE00043FD05B000BD00000010024000002110A1
:103AF0000008014010B50C480C4908600C484860AB
:103B000000210A488160C1604FF4804101610021B9
:103B100041618161C1610162FEF718FB18B1422168
:103B200004A000F0D9FC10BD005400403C0100206E
:103B3000801A06002E2E2F5372632F6932632E6374
:103B40000000000000B587B04FF0804017490860C2
:103B50003F2048600021154881604CF25031C1601F
:103B60000021016180218161FFF728F918B13F210F
:103B70000FA000F0B1FC4FF48050039003A90B4854
:103B8000FFF781F918B1452109A000F0A5FC00203C
:103B90000190029001A90548FFF7DFF818B14C2108
:103BA00003A000F099FC07B000BD000090010020C8
:103BB0002E2E2F5372632F74696D2E630000000048
:103BC00010B50C480C4908604FF4E1304860002102
:103BD00009488160C16001610C214161002181615E
:103BE000C161FFF7FFFB18B1432104A000F074FC92
:103BF00010BD000000380140780000202E2E2F5309
:103C000072632F75736172742E63000010B50C48D7
:103C10000C4908604FF4E130486000210948816098
:103C2000C16001610C21416100218161C161FFF727
:103C3000D9FB18B1562104A000F04EFC10BD0000C5
:103C400000440040B80000202E2E2F5372632F75C1
:103C5000736172742E63000000BFFEE770470000BE
:103C600002480068C0F30220704700000CED00E03D
:103C700010B5002807DA0A07140E054A00F00F03F2
:103C80001B1FD45403E00A07130E024A135410BD3D
:103C900018ED00E000E400E070B5002418E004F145
:103CA000B000002100F0DDF80021084600F0D9F84E
:103CB0000021102000F0D5F8002505E001210020AA
:103CC00000F0CFF8681CC5B2802DF7DB601CC4B2D1
:103CD000082CE4DB70BD10B500218D2000F0C1F888
:103CE0000021102000F0BDF80021AE2000F0B9F84E
:103CF0000021402000F0B5F80021802000F0B1F84C
:103D00000021C82000F0ADF80021812000F0A9F8C2
:103D10000021FF2000F0A5F80021A12000F0A1F86B
:103D20000021A62000F09DF80021A82000F099F8BD
:103D300000211F2000F095F80021D32000F091F819
:103D40000021084600F08DF80021D52000F089F808
:103D50000021F02000F085F80021D92000F081F842
:103D60000021222000F07DF80021DA2000F079F80F
:103D70000021022000F075F80021DB2000F071F82E
:103D80000021492000F06DF800218D2000F069F835
:103D90000021142000F065F80021AF2000F061F848
:103DA000FFF77AFF10BD70B504460D4605F1B0006F
:103DB000002100F056F8102141EA1410002100F013
:103DC00050F804F00F00002100F04BF870BD000027
:103DD0002DE9F04705460E46174698464FF0000974
:103DE0000024A7F1200000F0FF097F2D02DD00254F
:103DF000B01CC6B2B8F1010F12D031462846FFF709
:103E0000D2FF00240AE009EB4901064A02EB410116
:103E1000085D012100F025F8601CC4B2062CF2DB1D
:103E2000BDE8F087545300082DE9F04104460F46E1
:103E30001546984600260FE0AA5D434639462046BF
:103E4000FFF7C6FF04F10800C4B2782C02DD00249D
:103E5000B81CC7B2701CC6B2A85D0028ECD1BDE882
:103E6000F08170B504460D462DB1E2B240217820B4
:103E700000F01EF804E0E2B20021782000F018F80B
:103E800070BD704708B508490968C9084FF47A72CF
:103E9000B1FBF2F14143009100BF00BF00994A1EFF
:103EA00000920029F9D108BD1000002070470000E1
:103EB0007CB504460D4616468DF804508DF8056015
:103EC00006E00A48FEF73EF9042801D001207CBD37
:103ED0004FF47A70022301AA214600900348FEF7AE
:103EE000C9F90028EDD100BFF1E700003C01002036
:103EF00010B5FEF7B1FAFEF72AFF10BD10B590B06D
:103F00000220069001200A9010200B9002200D90B4
:103F100000210E914FF460110F9106A8FEF7C8FC26
:103F200020B140F2472115A000F0D6FA0F200190F1
:103F300002200290002003904FF480600490002043
:103F40000590022101A8FEF76FFB20B140F2552138
:103F50000AA000F0C1FAFEF739FC4FF47A71B0FB09
:103F6000F1F42046FEF7D9FE0420FEF7C1FE002240
:103F70001146501EFEF705FB10B010BD2E2E2F531C
:103F800072632F6D61696E2E630000001148006836
:103F900040F001000F490860084640680E4908409B
:103FA0000C494860084600680C4908400949086007
:103FB0000846006820F4802008600846406820F425
:103FC000FE0048604FF41F008860C8030449086081
:103FD00070470000001002400000FFF8FFFFF6FEEF
:103FE00008ED00E010B50248FEF7E7FF10BD000045
:103FF0009001002000220268184B984208D0B0F1CE
:10400000804F05D0164B984202D0164B984203D1F0
:1040100022F070024B681A43104B984208D0B0F15E
:10402000804F05D00E4B984202D00E4B984203D1E0
:1040300022F44072CB681A4322F080024B691A4383
:1040400002608B68C3620B688362044B984201D1A3
:104050000B6903630123436170470000002C01409A
:10406000000400400008004030B50C460021816883
:1040700021F47F4142EA032525432943816030BD75
:104080000A460021816821F0700142F007031943BC
:104090008160704730B50B46144600210022026A49
:1040A000056A25F001050562816921F0F00141EA08
:1040B000041122F00A021A438161026230BD30B558
:1040C0000B46144600210022056A25F01005056202
:1040D0008169026A21F4704141EA043122F0A002B0
:1040E00042EA03128161026230BD70B505466C6A16
:1040F0000020E085E0842046FFF7C2F870BD01682B
:10410000C96821F490710268D1600168496921F0A1
:10411000010102685161202180F83A10704710B502
:1041200004462068C06820F040002168C860202054
:1041300084F839002046FFF710FB002010BD70B551
:10414000044694F83A0022284AD1A068B0F5805F6E
:1041500013D1A56A206940B920684068C0F30800FF
:104160002880A06A801CA06219E020684068C0B264
:104170002880A06A401CA06211E0206938B920683C
:104180004068C1B2A26A501CA062117007E02068AA
:10419000406800F07F01A26A501CA0621170E08D9F
:1041A000401E80B2E085C8B92068C06820F02000B9
:1041B0002168C8602068C06820F480702168C860E9
:1041C0002068406920F0010021684861202084F8BF
:1041D0003A002046FFF74AFA002070BD0020FCE7B5
:1041E0000220FAE72DE9F041044600252068006925
:1041F00020F44050E1680843216808612169A06803
:1042000008436169084305432068C06841F20C61B6
:10421000884328432168C8602068406920F44070C2
:10422000A1690843216848615F49206888425CD1E0
:10423000FEF7E2FA00EBC00101EB001061688900B3
:10424000B0FBF1F6FEF7D8FA00EBC00101EB00106D
:1042500061688900B0FBF1F06421B0FBF1F000EB84
:10426000C00101EB0010A6EB8000322101EB001031
:104270006421B0FBF1F000F0F006FEF7BDFA00EBB0
:10428000C00101EB001061688900B0FBF1F064210E
:10429000B0FBF1F006EB0016FEF7AEFA00EBC00142
:1042A00001EB001061688900B0FBF1F7FEF7A4FA9A
:1042B00000EBC00101EB001061688900B0FBF1F078
:1042C0006421B0FBF1F000EBC00101EB0010A7EBA3
:1042D0008000322101EB00106421B0FBF1F000F00E
:1042E0000F003044216888605BE0FEF775FA00EB50
:1042F000C00101EB001061688900B0FBF1F6FEF728
:104300006BFA00EBC00101EB001061688900B0FBA3
:10431000F1F06421B0FBF1F000EBC00101EB001003
:10432000A6EB8000322101EB00106421B0FBF1F01C
:1043300000F0F006FEF750FA00EBC00101EB0010B0
:1043400061688900B0FBF1F06421B0FBF1F006EB8D
:104350000016FEF741FA00EBC00101EB00106168A6
:104360008900B0FBF1F7FEF737FA00EBC00101EB73
:10437000001061688900B0FBF1F06421B0FBF1F03E
:1043800000EBC00101EB0010A7EB8000322101EB34
:1043900000106421B0FBF1F000F00F003044216800
:1043A0008860BDE8F081000000380140014691F8C6
:1043B000390021282CD18868B0F5805F0FD10A6AB6
:1043C0001088C0F308000B685860086918B9086ABB
:1043D000801C086209E0086A401C086205E00B6A5C
:1043E000581C086218780B685860C88C401E80B250
:1043F000C88458B90868C06820F080000B68D8608D
:104400000868C06840F040000B68D8600020704722
:104410000220FCE72DE9F04104460D461746984678
:10442000069E21E0701CF8B12EB1FDF785FEA0EBD1
:104430000800B04218D92068C06820F4D070216804
:10444000C8602068406920F0010021684861202090
:1044500084F8390084F83A0000BF002084F838005E
:1044600000BF0320BDE8F081206800682840A84212
:1044700001D1012000E00020B842D3D00020F1E7B4
:1044800010B50248FEF708FF10BD0000B80000207C
:1044900010B50248FCF77EFB10BD0000F8000020BC
:1044A00080EA0120002212E000F40043B3F5004F3F
:1044B00007D14FF6FF7303EA400041F22103584051
:1044C00003E04FF6FF7303EA4000531CDAB2082AF8
:1044D000EADB704700BFFEE700BFFEE70FB4084B02
:1044E00010B504A902AA039800F0DEF8044602A958
:1044F000002000F070FC204610BC5DF814FB0000AA
:10450000D74D000802E008C8121F08C1002AFAD1DE
:1045100070477047002001E001C1121F002AFBD143
:10452000704700002DE9FF5F82B00021DDE9043013
:10453000020DDDF840B0034318D044F61050A2F24B
:10454000FF3242431514119801281FD0A5EB0B0030
:10455000401C5FEA000A4FF000064E4FDFF838912A
:10456000B046504615D5CAF1000413E01198012455
:104570004AA3012801D16FEA0B010298119AC0E900
:104580000031C0E9024206B0BDE8F09FCBF1000067
:10459000DFE704460021404A491842EB0450CDE9C8
:1045A000001012E0E00707D032463B46404649463D
:1045B000FBF767FF8046894632463B461046194660
:1045C000FBF75FFF06460F466410002CEAD1DDE9D9
:1045D0000401DDE90023BAF1000F06DAFBF751FF11
:1045E00042464B46FBF74DFF05E0FBF7BCFF42465A
:1045F0004B46FBF7B8FF04460E460022284BFCF75B
:1046000039F803D84FF0FF30014607E00022254B70
:1046100020463146FBF78EFEFCF714F8102409E023
:10462000002C0ADB0A220023FBF71CFE039B30321E
:104630001A55641E50EA0102F2D1641C039AC4F1B7
:1046400011031444119A012A03D0012208430DD109
:104650000AE0084304D000204FF0110B119072E7DC
:10466000A3EB0B056D1E0DE05B4504DD4FF0000272
:1046700005F1010504E003DA4FF00002A5F10105A0
:10468000002AECD002981199C0E90231C0E9004536
:1046900079E70000000014400000F03F3000000007
:1046A0000000F0430000E03F2DE9FF4F95B09B462E
:1046B0008946064600250FE2252877D100242746A3
:1046C000F84A0121059400E0044316F8013F203B1D
:1046D00001FA03F01042F7D130782A2811D06FF098
:1046E0002F033078A0F13002092A16D8059A44F039
:1046F000020402EB820203EB42021044761C059096
:10470000EFE759F8042B0592002A03DA504244F4EB
:104710000054059044F00204761C30782E2816D1FF
:1047200016F8010F44F004042A280DD06FF02F0270
:104730003078A0F13003092B09D807EB870302EB8F
:104740004303C718761CF3E759F8047B761C3078CE
:104750006C280FD006DC4C2817D068280DD06A28AA
:1047600014D104E0742810D07A280FD10DE044F45D
:1047700000140AE044F4801401E044F44014727818
:10478000824202D104F58014761C761C30786628AB
:104790000BD013DC582877D009DC002875D04528C9
:1047A000F6D04628F4D047281AD19DE118E06328B6
:1047B00035D0642879D0652812D195E1702873D05E
:1047C00008DC6728F1D069286FD06E280DD06F28DB
:1047D00006D1B5E073282CD0752875D0782874D010
:1047E0005A46179990476D1C75E1C4F30250022890
:1047F00009D003280DD0D9F8001004280DD00D6081
:1048000009F1040967E1D9F80010EA17C1E900527B
:10481000F6E7D9F800100D80F2E70D70F0E719F80F
:10482000041B8DF8001000208DF80100EA460120DD
:1048300003E059F804AB4FF0FF3061074FF000017F
:1048400002D40DE008F101018846B9420FDA804533
:10485000F8DB1AF808100029F4D108E008F101018A
:1048600088468142FADB1AF808100029F6D105982B
:104870005B46A0EB080721463846179A00F094FAE9
:10488000284400EB080507E04DE029E10DE01AF8A7
:10489000010B5A4617999047B8F10108F7D25B46C9
:1048A00021463846179A13E142E00A220092C4F3E7
:1048B00002524FF0000A022A08D059F804CB032A0A
:1048C0004FEAEC710AD00DE029E02AE009F1070176
:1048D00021F00702F2E802C1914609E00FFA8CFCD0
:1048E0004FEAEC71042A03D14FFA8CFC4FEAEC71C9
:1048F000002907DA0A460021DCF1000C61EB020115
:104900002D2202E0220504D52B228DF8042001225D
:1049100003E0E20701D02022F7E7904659E00A21A0
:1049200002E010220DE010214FF0000A00910BE090
:1049300010224FF0000A44F004040827009203E01C
:1049400008224FF0000A0092C4F30252022A05D056
:1049500059F804CB0021032A08D009E009F1070126
:1049600021F00702F2E802C1914605E01FFA8CFC33
:10497000042A01D10CF0FF0C4FF00008220728D5C3
:10498000702806D0009B83F0100353EA0A0305D079
:104990000EE040228DF80420012208E05CEA0102CA
:1049A00006D030228DF804208DF8050002229046B2
:1049B000009B83F0080353EA0A030AD15CEA010270
:1049C00001D1620705D530228DF804204FF001088F
:1049D0007F1E582804D034A003900EA802900DE04A
:1049E00036A0F9E753466046009AFBF73BFC844645
:1049F0000398825C0298401E029002705CEA0100FB
:104A0000F0D1029806A9081A00F1200A600702D521
:104A100024F4803400E00127574502DDA7EB0A00AB
:104A200000E0002000EB0A01009005984144401A84
:104A30000590E00306D45B462146179A059800F0DE
:104A4000B3F90544002706E001A85A46C05D17994E
:104A500090476D1C7F1C4745F6DBE0030CD55B4699
:104A60002146179A059800F09FF9054404E030208C
:104A70005A46179990476D1C0099481E00900029CE
:104A8000F5DC08E0029802995A460078491C029128
:104A9000179990476D1CBAF10001AAF1010AF1DCE7
:104AA00065E10000092801003031323334353637F2
:104AB000383961626364656600000000303132336A
:104AC000343536373839414243444546000000000A
:104AD00000F058F90544761C307800287FF4ECADDE
:104AE00019B02846BDE8F08F620700D4062709F107
:104AF000070222F0070CFCE80223E14603F000481D
:104B00005FEA080C02D00FF2702C0DE05FEA045C43
:104B100002D50FF2682C07E05FEAC47C02D00FF2E6
:104B2000602C01E0AFF2700C4FF0FF3823F000432F
:104B3000CDF850C065280CD006DC452809D04628A1
:104B40001DD047283DD13DE0662818D067287ED18A
:104B500038E00021112F01DB112000E0781CCDE9A5
:104B6000000106A90EA8FFF7DDFCDDE90F010E9A92
:104B700003910021009207F1010A04914DE04FF0EA
:104B800000400097CDE9011006A90EA8FFF7CAFC66
:104B9000DDE90F0203920E9B11990022DDF80CA0B3
:104BA0000093049211B9791C00EB010AB7EB0A00DB
:104BB00004D4C0F1FF3007F1010A0490AAEB07000A
:104BC000019044E0012F00DA01270021112F01DDBF
:104BD000112000E03846CDE9000106A90EA8FFF734
:104BE000A1FCDDE90F010E9A0391002104910092CE
:104BF000BA4621070CD40399514500DA8A46BAF126
:104C0000010F05DD009AAAF10101515C302908D09D
:104C1000B84202DA10F1040F06DA0121CDE90110E1
:104C200015E0AAF10101E9E7002805DC0499014437
:104C30000491AAEB000102E0411C514500DD8A46C7
:104C40000499401A401C01904FF000400290200748
:104C500004D40198504501DBCDF8048000208DF884
:104C60004F0002980DF14F07B0F1004F25D02B20D7
:104C70000E9002984FF0020800280CDA4042029091
:104C80002D200E9007E00A210298FBF7D5FA30316B
:104C9000029007F8011DB8F10001A8F10108F2DC4B
:104CA00002980028EFD1791E0E980870307800F035
:104CB000200040F0450007F8020D12A8C01B00F1CB
:104CC00007081498007800B1012000EB0A01019850
:104CD00001EBE07105984144401A401E0590E00345
:104CE00006D45B462146179A059800F05DF8054406
:104CF0001498007818B15A46179990476D1CE00334
:104D000024D55B462146179A059800F04DF80544D6
:104D10001CE00498002807DBDDE90301884203DD7D
:104D20000098405C179901E0179930205A46904747
:104D3000049805F10105401C04900198401E019063
:104D400004D12E205A46179990476D1CBAF10001E4
:104D5000AAF1010ADDDC05E017F8010B5A461799A4
:104D600090476D1CB8F10001A8F10108F4DC5B4626
:104D70002146179A0598ABE62D0000002B00000095
:104D8000200000002DE9F041044600251E4617468C
:104D9000880404D405E039462020B0476D1C641E09
:104DA000F9D52846BDE8F0812DE9F04104460025FB
:104DB0001E469046C80301D5302700E0202788040E
:104DC00004D505E041463846B0476D1C641EF9D550
:104DD0002846BDE8F0810A68531C0B6010707047CC
:104DE00010B586B004460FA207CA03AB07C3002064
:104DF00001900290A02C09D10A2103A800F080FAAA
:104E00006422052101A800F069FA08E00A2103A83C
:104E100000F094FA6422052101A800F07DFA06B0A2
:104E200010BD00000A30010000000000BC6F00004F
:104E30009EB00024002520210CA8FBF79CF920211E
:104E400004A8FBF798F9FDF70FFBFFF757F8FEF7FB
:104E500019FEFEF74FFEFEF7E7FDFEF7B1FEFEF787
:104E6000D5FEFEF76FFECD48CD494863CD480863B7
:104E7000002014901590169017901890012019900A
:104E800000201A9001201B901C901D9014A9C4486A
:104E9000FBF7D8FDC248FCF7E2FDC348FDF7D7FF9A
:104EA0004FF4FA70FCF796FEFEF715FF0023BFA241
:104EB00019461846FEF7B8FF0023BEA20121184686
:104EC000FEF7B2FF0023BDA202211846FEF7ACFF99
:104ED00040F23170B249096B08600020B049096B9B
:104EE0008860AF49096BC8600820AD49096B08614B
:104EF000F020AB49096B0875FF21A948006B41758B
:104F00000021A748006B8175B021A548006BC175D1
:104F10006421A348FCF74AFC4FF496720021A04894
:104F2000FCF788F800287DD19D48406B007D00F09B
:104F3000F000A449087000219948FCF7D2F940F22A
:104F400031709749096B086000209549096B8860AA
:104F50009349096BC86008209149096B0861994819
:104F600000788F49096B0875FE218D48006B4175EB
:104F700064218B48FCF71AFC40F231708849096BB8
:104F8000086000208649096B88608549096BC86004
:104F900008208349096B08618A4800788049096BB9
:104FA00008752E217E48006B417564217C48FCF712
:104FB000FDFB40F231707A49096B086000207849A6
:104FC000096B88607649096BC86008207449096BD1
:104FD00008617C4800787249096B0875F7217048B0
:104FE000006B4175F5216E48006B817501216C489D
:104FF000006BC17564216A48FCF7D8FB40F2317040
:105000006749096B086000206549096B886064493D
:10501000096BC86008206249096B0861694800781B
:105020005F4900E00AE0096B087524215C48006BC9
:10503000417564215A48FCF7B9FB03E00021584848
:10504000FCF74FF9A020FFF7CBFEA020FFF7C8FE2A
:10505000C82208215C4800F041F9A0215A4800F01C
:105060000DF9012815D15848407D5749097D564A08
:10507000D27CCDE9002102905348837C427C53A12D
:1050800004A8FFF72BFA002304AA03211846FEF711
:10509000CBFE6420FCF79EFDA02000F0D7F8A120F5
:1050A000FFF79EFEC8220821474800F035F9A121EC
:1050B000454800F0E3F8012814D14348417D007DC4
:1050C000414AD27CCDE9002002913F48837C427C5A
:1050D0003EA104A8FFF702FA002304AA0321184600
:1050E000FEF7A2FEA12000F0B1F82F48FDF7A0FEC8
:1050F00052E000203A490870022233493948FEF74D
:105100007CFA00BF364800780028FBD02E48007893
:105110000A283DD12C4840780D2839D11C20FDF7B4
:1051200015FA0A230D222849891C2E48FEF7F6F9A4
:1051300058BB0CA9244800F05FF8012825D19DF840
:1051400034009DF8331000EB0120274908809DF8BA
:1051500036009DF8351000EB012084B29DF83750E1
:1051600004FA05F0214908609DF8380020490870CC
:1051700055202049087041204870522088705420E2
:10518000C87032200871002048711C20FDF7ECF92E
:1051900000200D4908704870ABE700003400002083
:1051A000F8000020180000209001002043564552CE
:1051B0003A000000444953543A0000004D41474E24
:1051C0003A00000000000020580000203230256422
:1051D0002D25642D2564205625642E2564000000AD
:1051E00009000020B8000020020000200400002078
:1051F000080000200A0000202DE9F04104460E4678
:105200004FF0000800276078801CC5B220780A287B
:1052100002D00020BDE8F081A81E205C0702681EB5
:10522000205C0743281FC3B2022221464FF6FF70BD
:10523000FBF7E4FB8046B84506D12A1FA11C304687
:10524000FAF780FF0120E5E70020E3E73EB50446DA
:1052500007A207CA8DE80700A02C04D10A216846DE
:1052600000F04EF803E00A21684600F067F83EBD02
:105270000A240000000000000F72000070B58AB020
:1052800004460D4612A207CA07AB07C31C21684695
:10529000FAF771FF0026A02D09D10A2107A800F016
:1052A0002FF8C8221A21684600F018F808E00A21F1
:1052B00007A800F043F8C8221A21684600F02CF82D
:1052C00021466846FFF798FF064630460AB070BD93
:1052D0000A2E000000000000FC3C00002DE9F04117
:1052E00004460D461646002733462A462146034803
:1052F000FEF714F90746BDE8F081000078000020B1
:1053000070B504460D4664232A4621460148FEF73F
:10531000B9F970BD780000202DE9F04104460D4632
:105320001646002733462A4621460348FEF7F6F87C
:105330000746BDE8F0810000B800002070B50446C3
:105340000D4664232A4621460148FEF79BF970BDAD
:10535000B80000200000000000000000002F000046
:1053600000000700070000147F147F1400242A7F28
:105370002A120062640813230036495522500000A7
:105380000503000000001C224100000041221C0017
:105390000014083E08140008083E0808000000A099
:1053A0006000000808080808000060600000002095
:1053B00010080402003E5149453E0000427F400073
:1053C000004261514946002141454B3100181412F9
:1053D0007F10002745454539003C4A4949300001C6
:1053E0007109050300364949493600064949291E15
:1053F0000000363600000000563600000008142277
:105400004100001414141414000041221408000276
:105410000151090600324959513E007C1211127C9B
:10542000007F49494936003E41414122007F4141C8
:10543000221C007F49494941007F09090901003EBA
:105440004149497A007F0808087F0000417F4100F8
:10545000002040413F01007F08142241007F40406E
:105460004040007F020C027F007F0408107F003E56
:105470004141413E007F09090906003E4151215E3C
:10548000007F091929460046494949310001017F39
:105490000101003F4040403F001F2040201F003FCF
:1054A0004038403F00631408146300070870080781
:1054B00000615149454300007F41410000552A5594
:1054C0002A55000041417F0000040201020400400F
:1054D0004040404000000102040000205454547831
:1054E000007F484444380038444444200038444451
:1054F000487F00385454541800087E0901020018EF
:10550000A4A4A47C007F080404780000447D40002B
:10551000004080847D00007F102844000000417F0F
:105520004000007C04180478007C080404780038EB
:105530004444443800FC242424180018242418FC73
:10554000007C0804040800485454542000043F44DC
:105550004020003C4040207C001C2040201C003C9F
:105560004030403C004428102844001CA0A0A07CEF
:10557000004464544C441414141414140000000027
:1055800000000000010203040607080900000000F3
:1055900001020304B45500080000002018000000B8
:1055A00004450008CC55000818000020B80500008C
:1055B000144500080000000000000000000000008A
:0C55C0000000000000A24A0400000000EF
:04000005080000ED02
:00000001FF
